:020000040800F2
:10000000A8050020D5000008491300086110000869
:1000100000000000000000000000000000000000E0
:100020000000000000000000000000009513000820
:100030000000000000000000911300089713000862
:10004000E7000008E7000008E7000008E7000008F4
:1000500093130008E7000008E7000008E700000825
:10006000E7000008E7000008E7000008E7000008D4
:10007000E7000008E7000008E7000008E7000008C4
:10008000E7000008E7000008E7000008E7000008B4
:10009000E7000008E7000008E7000008E7000008A4
:1000A000E7000008E7000008E7000008E700000894
:1000B000E7000008E7000008E7000008E700000884
:1000C0000348854600F02AF8004800472D1A00082A
:1000D000A80500200448804704480047FEE7FEE7E3
:1000E000FEE7FEE7FEE7FEE711140008C100000886
:1000F00030B50B46014600202022012409E00D46C0
:10010000D5409D4205D31D469540491B2546954047
:1001100040191546521E002DF1DC30BD064C01255C
:10012000064E05E0E36807CC2B430C3C984710349F
:10013000B442F7D3FFF7C8FF141B0008341B0008B4
:10014000F8B5002393E0224601249C40A4462240B7
:100150007ED04C68022C01D0122C0CD1DC08A400FB
:1001600027183C6A5D07ED0E0F26AE40B4430E69BA
:10017000AE4026433E6205685E000324B4400F791A
:10018000A543BF07BF0FB7402F4307604D68012D40
:1001900005D0022D03D0112D01D0122D0ED185686E
:1001A000CF68A543B7402F43876047686546AF4394
:1001B0000D79ED06ED0F9D403D434560C568A543B3
:1001C0008C68B4402C43C4604C68E4004ED52B4C82
:1001D000A56901263543A561A4699D0834400094B2
:1001E000274CAD002F19BC689D072E0F0F25B54079
:1001F000AC430925ED06A84201D1002514E0214DAC
:10020000A84201D101250FE01F4DA84201D10225CE
:100210000AE01E4DA84201D1032505E01C4DA8426D
:1002200001D1042500E00525B5402543BD60194CEA
:1002300025684E689543F60300D51543256065682B
:100240004E689543B60300D515436560A56800E088
:100250000CE04E689543F60200D51543A560E568AD
:100260004E689543B60200D51543E5605B1C0A68ED
:100270001446DA4000D066E7F8BD000000100240E6
:10028000000001400004004800080048000C00483D
:100290000010004800040140002A01D0816170472D
:1002A000816270470148006870470000000000202C
:1002B00002480168491C01607047000000000020EE
:1002C00010B506480168102211430160002000F0BB
:1002D00007F800F017F8002010BD000000200240D1
:1002E00010B5044600F080F97D21C900FFF700FF3A
:1002F00000F0CEFB00222146501E00F037F800200F
:1003000010BD000008B513488169012211438161C5
:10031000816911400091C26901040A43C261C06948
:100320000022084000901146501F00F01FF80022E4
:100330001146901E00F01AF800221146501E00F0DF
:1003400015F800221146042000F010F8042000F0F7
:1003500003F808BD00100240C106C90E0120884004
:10036000014908607047000000E100E010B500F0AE
:10037000EDFF10BDF8B504460068434DC00352D5EB
:10038000E8690026C00007D4E96928040143E9614F
:10039000E9690140012600913C480168C90510D473
:1003A0000168821511430160FFF77CFF074604E0F6
:1003B000FFF778FFC01B642824D834480068C005C4
:1003C000F6D5286A03273F02384020D061683940BB
:1003D00081421CD0286A2A6AB843012109040A43D1
:1003E0002A622A6A8A432A622862C0070FD0FFF76E
:1003F00059FF009008E0FFF755FF0099411A244883
:10040000814201D90320F8BD286A8007F3D5286A04
:100410006168B84308432862002E04D0E8690121CE
:1004200009078843E8612078C00705D0286BA168D8
:1004300080088000084328632078800706D5286B51
:10044000032109048843E168084328632078800673
:1004500005D5286B1021884321690843286320684B
:10046000800305D5286B80218843A1690843286350
:100470002088400505D5286B4021884361690843E1
:1004800028630020F8BD000000100240007000400A
:1004900088130000F8B505464E480E460068C007B0
:1004A000C00FB0420AD24B480168490849003143A5
:1004B00001600068C007C00FB04270D12878464C78
:1004C000800705D56068F0218843A968084360600B
:1004D0002878C00753D06868012817D0022818D0A0
:1004E000032819D021688907002958DA616889082A
:1004F000890001436160FFF7D5FE6968074601295D
:1005000013D002291DD0032927D034E021688903A4
:10051000EAE721688901E7E7616BC903E4E7FFF7D0
:10052000C1FEC11B2D48814223D860680007800F9F
:100530000128F4D123E0FFF7B5FEC11B2748814213
:1005400017D860680007800F0228F4D117E0FFF782
:10055000A9FEC11B214881420BD860680007800FAB
:100560000328F4D10BE0FFF79DFEC11B1B4881421D
:1005700001D90320F8BD60680007800FF3D115484A
:100580000168C907C90FB1420BD901684908490080
:10059000314301600068C007C00FB04201D00120A4
:1005A000F8BD2878400706D560680721090288430E
:1005B000E9680843606000F02DF86168084A0906A0
:1005C000090F515CC840074908600020FFF788FE0A
:1005D0000020F8BD002002400010024088130000F7
:1005E000FC1A000804000020014800687047000061
:1005F000040000200448054900684968044A490588
:10060000490F515CC84070470400002000100240B0
:100610000C1B000830B516A30FCB89B06C460FC475
:1006200017A30FCB0FC41A494A680C201446044084
:100630001848042C05D0184B082C04D00C2C00D1E1
:10064000184609B030BD9402240F6D462C5DC96A6E
:1006500004AD0907090FD203695C920F022A02D088
:10066000032A00D11846FFF743FD6043E9E7000085
:1006700002030405060708090A0B0C0D0E0F1010E3
:100680000102030405060708090A0B0C0D0E0F10E2
:100690000010024000127A00006CDC02FEB5044635
:1006A0000078F04EF04DC00748D068680007800F12
:1006B00001281FD068680007800F022804D16868ED
:1006C000C003800F022815D06168012919D00120CC
:1006D0008004002901D0052917D02968B143296079
:1006E000296881432960606800281BD0FFF7DAFD84
:1006F000074613E02868800320D56068002876D07C
:100700001CE0286830432860EDE729680143296030
:10071000F7E7FFF7C7FDC01B642869D82868800386
:10072000F7D50BE0FFF7BEFD074604E0FFF7BAFD83
:10073000C01B6428F1D828688003F7D4207880078C
:100740003ED568680007800F14D068680007800FE6
:10075000022804D16868C003800F01280AD0E0682D
:10076000002828681DD0012108432860FFF79AFD62
:1007700007460BE0286880070BD5E068012836D1D2
:1007800007E0FFF78FFDC01B0228C6D82868800746
:10079000F7D52868F82188432169C90008432860F3
:1007A0000EE0400840002860FFF77CFD074604E0AB
:1007B000FFF778FDC01B0228AFD828688007F7D460
:1007C0002078000724D5E0690028686A11D001214B
:1007D00008436862FFF766FD074604E0FFF762FD25
:1007E000C01B022899D8686A8007F7D510E036E167
:1007F000D1E0400840006862FFF754FD074604E07E
:10080000FFF750FDC01B022887D8686A8007F7D41D
:10081000207804274007002861DA00200190E86969
:10082000C00008D4E969B8060143E961E9690140FB
:100830000120009101908D480168C90511D401681B
:10084000821511430160FFF72DFD009005E0FFF7D1
:1008500029FD0099401A642897D884480068C0058B
:10086000F5D5A06801280AD0002801D0052811D0AC
:10087000286A400840002862286AB84302E0286AD3
:10088000012108432862A068002812D0FFF70AFD62
:1008900000900AE0286A38432862F0E7FFF702FD7B
:1008A0000099411A7248814275D8286A8007F5D5A7
:1008B0000DE0FFF7F7FC009006E0FFF7F3FC00996E
:1008C000411A6B48814266D8286A8007F5D401989E
:1008D000002804D0E969012000078143E9612078FC
:1008E000C00635D5606901280CD0401D686B24D046
:1008F00038436863686B400840006863FFF7D2FCC8
:10090000074622E0686B38436863686B012108433F
:100910006863FFF7C7FC074604E0FFF7C3FCC01B92
:10092000022838D8686B8007F7D5686BF8218843B0
:10093000A169C900084368630AE0B8436863F4E743
:10094000FFF7B0FCC01B022825D8686B8007F7D4DE
:100950002078800637D568680007800F032813D0F9
:1009600068680007800F022804D16868C003800F00
:10097000032809D0206A0028686B16D030436863CA
:10098000FFF790FC06460CE0686BC0031BD5206A9D
:10099000012864D117E05BE0FFF784FC801B02288C
:1009A00056D8686BC003F7D50DE0B0436863FFF716
:1009B00079FC064604E0FFF775FC801B022847D847
:1009C000686BC003F7D4606A002846D069680907DD
:1009D000890F022943D0012636060228286805D04F
:1009E000B0432860FFF75EFC044633E0B043286064
:1009F000FFF758FC074604E0FFF754FCC01B022831
:100A000026D828688001F7D4E86A216B0009000124
:100A10000843E862A16AE06A084369687B22D2035E
:100A2000914308436860286830432860FFF73AFC28
:100A3000044604E0FFF736FC001B022808D82868AB
:100A40008001F7D509E0FFF72DFC001B022801D932
:100A50000320FEBD28688001F5D40020FEBD0120E2
:100A6000FEBD0000000001000010024000700040C8
:100A700088130000042204490428086902D0904326
:100A8000086170471043FBE700E000E0704700009A
:100A9000094910B5401E884201D9012010BD074CFC
:100AA00060610321081F00F051FC0020A0610720B5
:100AB0002061002010BD0000FFFFFF0000E000E00B
:100AC00010B5FFF7E3FF10BD70B5034620331A7F62
:100AD000012A27D001241C7702225A770326CA68EC
:100AE0003602B2438E6800253243A602B2434E68F6
:100AF00000683243E602B2430E6832432603B24333
:100B00000E6932436603B2434E6989693243A603D4
:100B1000B2430A43E603B2430A4342645C771D775B
:100B2000002070BD022070BD70B502462032137FD8
:100B3000012B1BD0012313770224547704686568C6
:100B40007026B5436560046865680E683543656066
:100B50000468A5688026B543A56000688468496874
:100B60000C43846053770020107770BD022070BD65
:100B7000F0B50168244A0920002402250326C00696
:100B800085B0914212D131020396009101950495EE
:100B9000029469460646FFF7D3FA68020090029471
:100BA0000195694604950394304613E001229207AB
:100BB000914213D1029401956946009604950394DD
:100BC000FFF7BEFA03208002029401950495039476
:100BD000009015E0FFF7B4FA05B0F0BD0B4A914262
:100BE000FAD1C02101270091029404970195039442
:100BF0006946FFF7A5FA02940497009601950394BD
:100C000069460348E6E70000002C0140000400406C
:100C100000040048F8B5064604462036307F0D46ED
:100C200001280DD001203077022070770427002A98
:100C300008D0042A16D0082A2AD00C2A4DD137E031
:100C40000220F8BD206800F067FC20688169082256
:100C50001143816120688169B9438161206881699C
:100C60002A6912E0206800F09BFC2068826901215B
:100C7000C9020A438261206881690122920291437C
:100C80008161206881692A6912021143816124E02F
:100C9000206800F0C5FC2068C26908210A43C261CF
:100CA0002068C169B943C1612068C1692A6912E03D
:100CB000206800F0F7FC2068C1690122D2021143CC
:100CC000C1612068C269012189028A43C26120682A
:100CD000C1692A6912021143C161012070770020A5
:100CE0003077F8BD70B5040005D025462035687F03
:100CF000002802D006E0012070BD002028772046A1
:100D000000F00AF802206877211D206800F0AEFB91
:100D100001206877002070BD08B5104A01681048AE
:100D2000914205D18269C1140A438261806913E04E
:100D300001229207914207D1C16901221143C16189
:100D4000C0691040009008BD064A9142FBD1C269BB
:100D500002210A43C261C0690840F3E7002C014048
:100D6000001002400004004010B504460068012253
:100D700000F0C6FB0C482168814208D00B48814234
:100D800005D00B48814202D00A48814204D1486C08
:100D90000122D203104348642068016801221143F4
:100DA0000160002010BD0000002C01400040014007
:100DB000004401400048014070B5040005D02546BC
:100DC0006035687A002802D006E0012070BD00205E
:100DD0002872204600F026F82420687220680168F6
:100DE000490849000160204600F032FD0128EDD09D
:100DF000606A002802D0204600F08AFC2068416822
:100E00000922D20291434160206881682A229143DD
:100E1000816020680168012211430160204600F0D2
:100E2000DDFC70BD70B5184E056800211748022220
:100E30000323012486B0B5420FD1C66915042E43A1
:100E4000C661C0690192284005900C20009002AD57
:100E50001AC509206946C00611E00D4EB54210D1F1
:100E6000C6690125AD042E43C661C06901922840C0
:100E700005903020009002AD1AC569460548FFF77D
:100E80005FF906B070BD0000004400400010024051
:100E90000048004000080048FFB507460446603798
:100EA000B87A83B00E46202871D1002E0CD0059858
:100EB000002809D00120A1680003814207D12069E0
:100EC000002804D1F00702D0012007B0F0BD387A25
:100ED00001285CD0012038720020E0662220B87220
:100EE000FFF7E0F9029025464035059828830598DC
:100EF00068830122A0681203FF21904204D1206977
:100F0000002815D123480AE07F2200280BD00121B8
:100F10000907884204D12069002807D03F20A88310
:100F2000A88B019023E02069002801D0AA83F7E76D
:100F3000A983F5E7688B401E68830698009000221D
:100F400020212046029B00F031FD002801D0032023
:100F5000BBE70120A1680003814202D1206900287B
:100F60000DD02068818C019801403170761C688B0F
:100F70000028DFD12020B87200203872A5E7206851
:100F8000808C019908403080B61CF0E7FFE7022012
:100F90009BE70000FF010000FFB5064604466036EF
:100FA000707A83B00D46202858D1002D0CD00598BA
:100FB000002809D00120A1680003814207D12069DF
:100FC000002804D1E80702D0012007B0F0BD307A34
:100FD000012843D0012030720020E0662120707289
:100FE000FFF760F901902746403705983882059849
:100FF000788218E0788A401E788206980090002255
:1010000080212046019B00F0D1FC002818D101204E
:10101000A1680003814202D12069002812D0216812
:10102000287808856D1C788A0028E3D106980090FE
:10103000002240212046019B00F0B8FC002808D087
:101040000320C2E728882168C005C00D0885AD1CB3
:10105000E9E72020707200203072B6E70220B4E782
:10106000FEE7000030B5234887B042690121C9047A
:101070000A43426142690A4005924269C9000A4333
:10108000426142690A400592426949110A4342613C
:1010900042690A400592426949000A434261406937
:1010A00009250840ED060590002220212846FFF77B
:1010B000F3F8012040030024009001946946029453
:1010C0000D48FFF73DF82020009001200190029488
:1010D000694603942846FFF733F80F200003009079
:1010E00002200290019469460448FFF729F807B0EE
:1010F00030BD000000100240000800480004004815
:1011000010B52C4890B02A49016000240821846061
:1011100041600461446128498461C160FFF7E2FDD8
:10112000002800D0FEE70E940EA922480F94FFF786
:10113000FBFC002800D0FEE7602000900420019412
:101140000490029403940594002269460694194879
:10115000FFF760FD002800D0FEE77D20C000019071
:10116000042269461348FFF755FD002800D0FEE72A
:101170000194082269460F480494FFF74BFD0028AC
:1011800000D0FEE701200794400308940C900994D6
:101190000A940B9407A90D940648FFF795FC0028C4
:1011A00000D0FEE70348FFF7E3FC10B010BD0000DD
:1011B000002C0140080000201F4E000010B5012146
:1011C00020488AB08907002412C00460446084600B
:1011D00004610838FFF786FD002800D0FEE7079479
:1011E00007A918480894FFF79FFC002800D0FEE7E5
:1011F00060200090019402940022694604941148F2
:10120000FFF708FD002800D0FEE7042269460D48DC
:10121000FFF700FD002800D0FEE7082269460948D4
:10122000FFF7F8FC002800D0FEE70C2269460548CD
:10123000FFF7F0FC002800D0FEE70248FFF798FC1B
:101240000AB010BD4800002010B5214921488AB0DD
:10125000002412C004604460846004610838FFF711
:1012600041FD002800D0FEE7079407A9194808941B
:10127000FFF75AFC002800D0FEE7602000900194A0
:1012800002940022694604941248FFF7C3FC002828
:1012900000D0FEE7042269460E48FFF7BBFC002899
:1012A00000D0FEE7082269460A48FFF7B3FC002891
:1012B00000D0FEE70C2269460648FFF7ABFC002889
:1012C00000D0FEE70348FFF753FC0AB010BD000052
:1012D000000400408800002010B50C480A49016055
:1012E000E1214902416000218160C16001618161A9
:1012F000C1610C22016242614162FFF75DFD00287D
:1013000000D0FEE710BD000000440040C8000020EF
:1013100010B50C480A4901604B21C9014160002108
:101320008160C16001618161C1610C220162426121
:101330004162FFF741FD002800D0FEE710BD00002C
:101340000048004038010020704700008307FF225A
:10135000DB0E9A408907090E994000280BDA000736
:10136000000F0838830808489B001818C369934386
:101370000B43C3617047830804489B001B1818681F
:10138000904308431860704700ED00E000E400E07F
:1013900070477047704710B5FEF78AFFFFF790FB64
:1013A00010BD30B599B0012003900024102009949D
:1013B0000225049000956846FFF770F9002800D0D8
:1013C000FEE707200D900E940F94002110940DA8B5
:1013D000FFF760F8002800D0FEE711A811951494DB
:1013E000FEF7C8FF002800D0FEE7FFF7FDF87D21DB
:1013F000C900FEF77DFEFFF74BFB0420FFF73AFB29
:1014000000221146501EFEF7B1FF19B030BD00009A
:10141000124801680122114301604168104A1140DD
:10142000416001680F4A1140016001680122920485
:101430009143016041683F22120491434160C16AB7
:1014400009090901C162016B074A11400163416B3F
:101450004908490041630021816070470010024043
:101460000CB8FF08FFFFF6FE2CFEFCFFF0B502688B
:101470001D4B0124A4071D4D984203D0A04201D06A
:10148000A84203D17026B2434E683243184E194F1A
:1014900098420DD0A0420BD0A84209D0164CA042D1
:1014A00006D0B04204D0B84202D0144CA04204D1BD
:1014B00003242402A243CC6822438024A2434C6923
:1014C000224302608A68C2620A688262984206D039
:1014D000B04204D0B84202D0084A904201D1096912
:1014E000016301214161F0BD002C01400004004076
:1014F00000400140004401400020004000480140FD
:1015000010B50123046A8B409C430462036A8A403D
:101510001343036210BD0000F0B5026A5208520086
:101520000262056A436882697024A24392080C68CB
:1015300092001443022295438A68164E2A43144DA2
:10154000A84207D0B04205D0134FB84202D0134F83
:10155000B84206D10827BA43CF68174304229743FD
:101560003A46A84207D0B04205D00B4DA84202D05F
:101570000A4DA84206D103252D02AB434D691D43F8
:101580008B692B4343608461496841630262F0BD0B
:10159000002C01400040014000440140004801404F
:1015A00070B5026A10239A430262056A4268836931
:1015B00073242402A3430C6824021C4320239D436C
:1015C0008B681B012B43124DA84208D11D46CB68E6
:1015D0008026B5431B012B434025AB4308E00D4D4E
:1015E000A84205D00C4DA84202D00C4DA84208D10B
:1015F0000325AD02AA434D69AD0015438A699200E7
:101600002A434260846149688163036270BD0000BF
:10161000002C0140004001400044014000480140CE
:1016200070B5026AFF2301339A430262056A436878
:10163000C2697024A24392080C68920014430122EC
:10164000520295438A6812022A43124DA84208D1D9
:101650001546CA68C614B54312022A430515AA43A3
:1016600008E00D4DA84205D00C4DA84202D00C4D0B
:10167000A84208D103252D03AB434D692D011D431D
:101680008B691B012B434360C4614968C1630262DB
:1016900070BD0000002C01400040014000440140AA
:1016A0000048014030B5026A01231B039A430262DD
:1016B000046A4268C36973252D02AB430D682D028D
:1016C0001D4301235B039C438B681B0323430C4C8A
:1016D000A04208D00B4CA04205D00B4CA04202D037
:1016E0000A4CA04205D10124A403A2434C69A401E1
:1016F00022434260C56149680164036230BD000055
:10170000002C0140004001400044014000480140DD
:1017100010B5818CC90707D001684A6801235B04B2
:101720009A43836A1A434A60818C890707D5016806
:101730004A6801231B049A43C36A1A434A60818C96
:10174000490707D501684A6801239B049A43036B44
:101750001A434A60818C090707D501684A6801234A
:10176000DB039A43436B1A434A60818CC90607D551
:101770000268916801231B039943836B19439160AD
:10178000818C890607D501688A6801235B039A4327
:10179000C36B1A438A60818C490612D503685A6864
:1017A00001210905046C8A4322435A60026C8A4273
:1017B00007D10268516803235B059943436C1943C1
:1017C0005160818C090607D501684A680123DB0452
:1017D000806C9A4302434A6010BD0000F8B50026B1
:1017E0000446C666FEF75EFD054616492068884237
:1017F00002D0154988421DD10068144F000709D551
:1018000001212B46002249052046009700F0CEF822
:1018100000280DD12068006840070BD501212B4618
:10182000002289052046009700F0C0F8002801D06A
:101830000320F8BD202060346072A0722672002060
:10184000F8BD00000038014000440040FFFFFF01E8
:10185000F8B504462369A268E5691A436369102054
:101860002B43002125681A432B680E46474F3B4007
:1018700013432B6023685A6803252D03AA43E568A8
:101880002A435A60236AA26925681A43AB680B276A
:101890003F02BB431343AB603D4F25683D4B020302
:1018A000BD420AD11B6B9B079B0F20D0012B14D08C
:1018B000022B14D0032B1BD10DE0374FBD4210D1AA
:1018C0001B6B03273F043B4011D09B1A05D09B1A8A
:1018D00005D093420CD102200AE0042008E0082041
:1018E00006E02E4B9D4202D02D4B9D4200D10020A0
:1018F0000123E769DB039F4222D100280CD0022894
:101900000DD0042813D0082817D001260A09120187
:101910000807400F10432EE0FEF76CFE09E06168F7
:10192000204A48088018FEF7E3FB81B2EEE7FEF795
:1019300071FE616840004A08F4E761684808F1E711
:10194000002808D0022809D004280CD0082815D077
:1019500001263046F8BDFEF74DFE06E06168124AEA
:10196000480880180DE0FEF755FE61684A088018A7
:10197000FEF7BEFB80B22168C860EAE761684808EC
:10198000C018FEF7B5FB80B2E860E2E7F369FFEF4D
:101990000038014000100240004400400048004070
:1019A000004C00400024F40000127A00FFB581B022
:1019B00017460E4604460A9D1DE0681C1BD0002DEC
:1019C00005D0FEF76FFC0499401AA84213D920688D
:1019D0000168FF22A13291430160206881684908B3
:1019E00049008160202060346072A0720020207263
:1019F000032005B0F0BD2068C1693046884304D09B
:101A00000020B842D9D00020F3E70120F9E702E036
:101A100008C8121F08C1002AFAD170477047002079
:101A200001E001C1121F002AFBD17047C2B0FEF7CE
:101A300047FC00252C46FFF7B4FCFFF713FBFFF72C
:101A40005FFBFFF765FCFFF747FCFFF7B7FBFFF70E
:101A5000FBFB00212648FFF787F904212448FFF704
:101A600083F908212248FFF77FF9E1202149C000CE
:101A700048638863C8636E1E0927FF063346012248
:101A800069461D48FFF708FA0028F7D11A4833467F
:101A9000012269467038FFF77FFA684600787E2891
:101AA00011D0002DEAD001A90855641CE4B2032C22
:101AB000E4D968468079001D8442DFD16846C07948
:101AC000902807D00FE0002DEDD169460124087160
:101AD0002546D3E76846C07C012807D00022202194
:101AE0003846FEF7D9FB00252C46C7E70122F6E76A
:101AF00008000020002C01403801002000000000F8
:101B000000000000010203040607080900000000AD
:101B100001020304341B000800000020080000003C
:101B20000E1A00083C1B000808000020A005000059
:0C1B30001E1A00080000000000127A00DD
:04000005080000C12E
:00000001FF
